{
  "_format": "hh-sol-artifact-1",
  "contractName": "AMM",
  "sourceName": "contracts/Pool.sol",
  "abi": [
    {
      "inputs": [
        {
          "internalType": "address",
          "name": "_dsh",
          "type": "address"
        },
        {
          "internalType": "address",
          "name": "_gauss",
          "type": "address"
        },
        {
          "internalType": "address",
          "name": "_lp",
          "type": "address"
        }
      ],
      "stateMutability": "nonpayable",
      "type": "constructor"
    },
    {
      "anonymous": false,
      "inputs": [
        {
          "indexed": true,
          "internalType": "address",
          "name": "previousOwner",
          "type": "address"
        },
        {
          "indexed": true,
          "internalType": "address",
          "name": "newOwner",
          "type": "address"
        }
      ],
      "name": "OwnershipTransferred",
      "type": "event"
    },
    {
      "inputs": [
        {
          "internalType": "address",
          "name": "addr",
          "type": "address"
        }
      ],
      "name": "change_token_A",
      "outputs": [],
      "stateMutability": "nonpayable",
      "type": "function"
    },
    {
      "inputs": [
        {
          "internalType": "address",
          "name": "addr",
          "type": "address"
        }
      ],
      "name": "change_token_B",
      "outputs": [],
      "stateMutability": "nonpayable",
      "type": "function"
    },
    {
      "inputs": [
        {
          "internalType": "address",
          "name": "addr",
          "type": "address"
        }
      ],
      "name": "change_token_LP",
      "outputs": [],
      "stateMutability": "nonpayable",
      "type": "function"
    },
    {
      "inputs": [
        {
          "internalType": "uint256",
          "name": "gauss_amt",
          "type": "uint256"
        },
        {
          "internalType": "uint256",
          "name": "euler_amt",
          "type": "uint256"
        }
      ],
      "name": "create_pool",
      "outputs": [],
      "stateMutability": "nonpayable",
      "type": "function"
    },
    {
      "inputs": [
        {
          "internalType": "uint256",
          "name": "gauss_amt",
          "type": "uint256"
        }
      ],
      "name": "deposit_liquidity_gauss",
      "outputs": [],
      "stateMutability": "nonpayable",
      "type": "function"
    },
    {
      "inputs": [
        {
          "internalType": "uint256",
          "name": "gauss_amt",
          "type": "uint256"
        }
      ],
      "name": "deposit_view",
      "outputs": [
        {
          "internalType": "uint256",
          "name": "",
          "type": "uint256"
        }
      ],
      "stateMutability": "view",
      "type": "function"
    },
    {
      "inputs": [],
      "name": "euler",
      "outputs": [
        {
          "internalType": "contract DSH",
          "name": "",
          "type": "address"
        }
      ],
      "stateMutability": "view",
      "type": "function"
    },
    {
      "inputs": [
        {
          "internalType": "address",
          "name": "",
          "type": "address"
        }
      ],
      "name": "euler_bal",
      "outputs": [
        {
          "internalType": "uint256",
          "name": "",
          "type": "uint256"
        }
      ],
      "stateMutability": "view",
      "type": "function"
    },
    {
      "inputs": [],
      "name": "gauss",
      "outputs": [
        {
          "internalType": "contract DSH",
          "name": "",
          "type": "address"
        }
      ],
      "stateMutability": "view",
      "type": "function"
    },
    {
      "inputs": [
        {
          "internalType": "address",
          "name": "",
          "type": "address"
        }
      ],
      "name": "gauss_bal",
      "outputs": [
        {
          "internalType": "uint256",
          "name": "",
          "type": "uint256"
        }
      ],
      "stateMutability": "view",
      "type": "function"
    },
    {
      "inputs": [],
      "name": "get_pool_balance",
      "outputs": [
        {
          "internalType": "uint256",
          "name": "",
          "type": "uint256"
        },
        {
          "internalType": "uint256",
          "name": "",
          "type": "uint256"
        }
      ],
      "stateMutability": "view",
      "type": "function"
    },
    {
      "inputs": [],
      "name": "lp",
      "outputs": [
        {
          "internalType": "contract ILP",
          "name": "",
          "type": "address"
        }
      ],
      "stateMutability": "view",
      "type": "function"
    },
    {
      "inputs": [],
      "name": "owner",
      "outputs": [
        {
          "internalType": "address",
          "name": "",
          "type": "address"
        }
      ],
      "stateMutability": "view",
      "type": "function"
    },
    {
      "inputs": [],
      "name": "pool_owner",
      "outputs": [
        {
          "internalType": "address",
          "name": "",
          "type": "address"
        }
      ],
      "stateMutability": "view",
      "type": "function"
    },
    {
      "inputs": [
        {
          "internalType": "uint256",
          "name": "gauss_amt",
          "type": "uint256"
        }
      ],
      "name": "price_ratio_a",
      "outputs": [
        {
          "internalType": "uint256",
          "name": "",
          "type": "uint256"
        }
      ],
      "stateMutability": "view",
      "type": "function"
    },
    {
      "inputs": [
        {
          "internalType": "uint256",
          "name": "lp_amt",
          "type": "uint256"
        }
      ],
      "name": "redeem_amount",
      "outputs": [
        {
          "internalType": "uint256",
          "name": "a_return",
          "type": "uint256"
        },
        {
          "internalType": "uint256",
          "name": "b_return",
          "type": "uint256"
        }
      ],
      "stateMutability": "view",
      "type": "function"
    },
    {
      "inputs": [
        {
          "internalType": "uint256",
          "name": "lp_amt",
          "type": "uint256"
        }
      ],
      "name": "redeem_lp",
      "outputs": [],
      "stateMutability": "nonpayable",
      "type": "function"
    },
    {
      "inputs": [],
      "name": "renounceOwnership",
      "outputs": [],
      "stateMutability": "nonpayable",
      "type": "function"
    },
    {
      "inputs": [
        {
          "internalType": "uint256",
          "name": "amt_a",
          "type": "uint256"
        }
      ],
      "name": "swap_atob",
      "outputs": [],
      "stateMutability": "nonpayable",
      "type": "function"
    },
    {
      "inputs": [
        {
          "internalType": "uint256",
          "name": "amt_a",
          "type": "uint256"
        }
      ],
      "name": "swap_atob_view",
      "outputs": [
        {
          "internalType": "uint256",
          "name": "",
          "type": "uint256"
        }
      ],
      "stateMutability": "view",
      "type": "function"
    },
    {
      "inputs": [
        {
          "internalType": "uint256",
          "name": "amt_b",
          "type": "uint256"
        }
      ],
      "name": "swap_btoa",
      "outputs": [],
      "stateMutability": "nonpayable",
      "type": "function"
    },
    {
      "inputs": [
        {
          "internalType": "uint256",
          "name": "amt_b",
          "type": "uint256"
        }
      ],
      "name": "swap_btoa_view",
      "outputs": [
        {
          "internalType": "uint256",
          "name": "",
          "type": "uint256"
        }
      ],
      "stateMutability": "view",
      "type": "function"
    },
    {
      "inputs": [
        {
          "internalType": "address",
          "name": "newOwner",
          "type": "address"
        }
      ],
      "name": "transferOwnership",
      "outputs": [],
      "stateMutability": "nonpayable",
      "type": "function"
    }
  ],
  "bytecode": "0x60806040523480156200001157600080fd5b5060405162002da538038062002da5833981810160405281019062000037919062000247565b620000576200004b6200016460201b60201c565b6200016c60201b60201c565b33600460006101000a81548173ffffffffffffffffffffffffffffffffffffffff021916908373ffffffffffffffffffffffffffffffffffffffff16021790555082600160006101000a81548173ffffffffffffffffffffffffffffffffffffffff021916908373ffffffffffffffffffffffffffffffffffffffff16021790555081600260006101000a81548173ffffffffffffffffffffffffffffffffffffffff021916908373ffffffffffffffffffffffffffffffffffffffff16021790555080600360006101000a81548173ffffffffffffffffffffffffffffffffffffffff021916908373ffffffffffffffffffffffffffffffffffffffff160217905550505050620002eb565b600033905090565b60008060009054906101000a900473ffffffffffffffffffffffffffffffffffffffff169050816000806101000a81548173ffffffffffffffffffffffffffffffffffffffff021916908373ffffffffffffffffffffffffffffffffffffffff1602179055508173ffffffffffffffffffffffffffffffffffffffff168173ffffffffffffffffffffffffffffffffffffffff167f8be0079c531659141344cd1fd0a4f28419497f9722a3daafe3b4186f6b6457e060405160405180910390a35050565b6000815190506200024181620002d1565b92915050565b6000806000606084860312156200025d57600080fd5b60006200026d8682870162000230565b9350506020620002808682870162000230565b9250506040620002938682870162000230565b9150509250925092565b6000620002aa82620002b1565b9050919050565b600073ffffffffffffffffffffffffffffffffffffffff82169050919050565b620002dc816200029d565b8114620002e857600080fd5b50565b612aaa80620002fb6000396000f3fe608060405234801561001057600080fd5b506004361061014d5760003560e01c80637cf95ecf116100c3578063ec1c9ad71161007c578063ec1c9ad71461037a578063f2fde38b146103aa578063f82c5a53146103c6578063f8381884146103f6578063fb7627a814610412578063fdeb912d146104425761014d565b80637cf95ecf146102b65780638da5cb5b146102d25780638e4d20dc146102f0578063b69e84251461030e578063db661b711461033e578063de99ad771461035c5761014d565b8063313c06a011610115578063313c06a0146101f657806350674de1146102145780635547dd221461024457806355f36f3c14610260578063715018a6146102905780637a68caea1461029a5761014d565b80631b47a887146101525780632d5956ad1461016e5780633025b45b1461018a57806330927547146101a657806331031919146101c5575b600080fd5b61016c6004803603810190610167919061254d565b61045e565b005b6101886004803603810190610183919061254d565b6107cc565b005b6101a4600480360381019061019f91906124fb565b610a42565b005b6101ae610b02565b6040516101bc9291906127f2565b60405180910390f35b6101df60048036038101906101da919061254d565b610c63565b6040516101ed9291906127f2565b60405180910390f35b6101fe610ea2565b60405161020b919061277c565b60405180910390f35b61022e6004803603810190610229919061254d565b610ec8565b60405161023b91906127d7565b60405180910390f35b61025e600480360381019061025991906124fb565b610f29565b005b61027a6004803603810190610275919061254d565b610fe9565b60405161028791906127d7565b60405180910390f35b61029861104a565b005b6102b460048036038101906102af91906124fb565b6110d2565b005b6102d060048036038101906102cb919061254d565b611192565b005b6102da611408565b6040516102e791906126bd565b60405180910390f35b6102f8611431565b6040516103059190612761565b60405180910390f35b610328600480360381019061032391906124fb565b611457565b60405161033591906127d7565b60405180910390f35b61034661146f565b6040516103539190612761565b60405180910390f35b610364611495565b60405161037191906126bd565b60405180910390f35b610394600480360381019061038f919061254d565b6114bb565b6040516103a191906127d7565b60405180910390f35b6103c460048036038101906103bf91906124fb565b61163d565b005b6103e060048036038101906103db91906124fb565b611735565b6040516103ed91906127d7565b60405180910390f35b610410600480360381019061040b919061259f565b61174d565b005b61042c6004803603810190610427919061254d565b611ad8565b60405161043991906127d7565b60405180910390f35b61045c6004803603810190610457919061254d565b611d3d565b005b80600360009054906101000a900473ffffffffffffffffffffffffffffffffffffffff1673ffffffffffffffffffffffffffffffffffffffff1663dd62ed3e33306040518363ffffffff1660e01b81526004016104bc9291906126d8565b602060405180830381600087803b1580156104d657600080fd5b505af11580156104ea573d6000803e3d6000fd5b505050506040513d601f19601f8201168201806040525081019061050e9190612576565b1161051857600080fd5b600360009054906101000a900473ffffffffffffffffffffffffffffffffffffffff1673ffffffffffffffffffffffffffffffffffffffff166323b872dd3330846040518463ffffffff1660e01b815260040161057793929190612701565b602060405180830381600087803b15801561059157600080fd5b505af11580156105a5573d6000803e3d6000fd5b505050506040513d601f19601f820116820180604052508101906105c99190612524565b50600360009054906101000a900473ffffffffffffffffffffffffffffffffffffffff1673ffffffffffffffffffffffffffffffffffffffff166342966c68826040518263ffffffff1660e01b815260040161062591906127d7565b600060405180830381600087803b15801561063f57600080fd5b505af1158015610653573d6000803e3d6000fd5b5050505060008061066383610c63565b91509150600260009054906101000a900473ffffffffffffffffffffffffffffffffffffffff1673ffffffffffffffffffffffffffffffffffffffff1663a9059cbb33846040518363ffffffff1660e01b81526004016106c4929190612738565b602060405180830381600087803b1580156106de57600080fd5b505af11580156106f2573d6000803e3d6000fd5b505050506040513d601f19601f820116820180604052508101906107169190612524565b50600160009054906101000a900473ffffffffffffffffffffffffffffffffffffffff1673ffffffffffffffffffffffffffffffffffffffff1663a9059cbb33836040518363ffffffff1660e01b8152600401610774929190612738565b602060405180830381600087803b15801561078e57600080fd5b505af11580156107a2573d6000803e3d6000fd5b505050506040513d601f19601f820116820180604052508101906107c69190612524565b50505050565b80600260009054906101000a900473ffffffffffffffffffffffffffffffffffffffff1673ffffffffffffffffffffffffffffffffffffffff1663dd62ed3e33306040518363ffffffff1660e01b815260040161082a9291906126d8565b602060405180830381600087803b15801561084457600080fd5b505af1158015610858573d6000803e3d6000fd5b505050506040513d601f19601f8201168201806040525081019061087c9190612576565b1161088657600080fd5b600080610891610b02565b91509150600081836108a391906128b3565b905060006108d76108c886866108b9919061282c565b8461230390919063ffffffff16565b8461231990919063ffffffff16565b9050600260009054906101000a900473ffffffffffffffffffffffffffffffffffffffff1673ffffffffffffffffffffffffffffffffffffffff166323b872dd3330886040518463ffffffff1660e01b815260040161093893929190612701565b602060405180830381600087803b15801561095257600080fd5b505af1158015610966573d6000803e3d6000fd5b505050506040513d601f19601f8201168201806040525081019061098a9190612524565b50600160009054906101000a900473ffffffffffffffffffffffffffffffffffffffff1673ffffffffffffffffffffffffffffffffffffffff1663a9059cbb33836040518363ffffffff1660e01b81526004016109e8929190612738565b602060405180830381600087803b158015610a0257600080fd5b505af1158015610a16573d6000803e3d6000fd5b505050506040513d601f19601f82011682018060405250810190610a3a9190612524565b505050505050565b610a4a61232f565b73ffffffffffffffffffffffffffffffffffffffff16610a68611408565b73ffffffffffffffffffffffffffffffffffffffff1614610abe576040517f08c379a0000000000000000000000000000000000000000000000000000000008152600401610ab5906127b7565b60405180910390fd5b80600160006101000a81548173ffffffffffffffffffffffffffffffffffffffff021916908373ffffffffffffffffffffffffffffffffffffffff16021790555050565b600080600260009054906101000a900473ffffffffffffffffffffffffffffffffffffffff1673ffffffffffffffffffffffffffffffffffffffff166370a08231306040518263ffffffff1660e01b8152600401610b6091906126bd565b60206040518083038186803b158015610b7857600080fd5b505afa158015610b8c573d6000803e3d6000fd5b505050506040513d601f19601f82011682018060405250810190610bb09190612576565b600160009054906101000a900473ffffffffffffffffffffffffffffffffffffffff1673ffffffffffffffffffffffffffffffffffffffff166370a08231306040518263ffffffff1660e01b8152600401610c0b91906126bd565b60206040518083038186803b158015610c2357600080fd5b505afa158015610c37573d6000803e3d6000fd5b505050506040513d601f19601f82011682018060405250810190610c5b9190612576565b915091509091565b6000806000600260009054906101000a900473ffffffffffffffffffffffffffffffffffffffff1673ffffffffffffffffffffffffffffffffffffffff166370a08231306040518263ffffffff1660e01b8152600401610cc391906126bd565b60206040518083038186803b158015610cdb57600080fd5b505afa158015610cef573d6000803e3d6000fd5b505050506040513d601f19601f82011682018060405250810190610d139190612576565b90506000600160009054906101000a900473ffffffffffffffffffffffffffffffffffffffff1673ffffffffffffffffffffffffffffffffffffffff166370a08231306040518263ffffffff1660e01b8152600401610d7291906126bd565b60206040518083038186803b158015610d8a57600080fd5b505afa158015610d9e573d6000803e3d6000fd5b505050506040513d601f19601f82011682018060405250810190610dc29190612576565b90506000600360009054906101000a900473ffffffffffffffffffffffffffffffffffffffff1673ffffffffffffffffffffffffffffffffffffffff166317879d426040518163ffffffff1660e01b815260040160206040518083038186803b158015610e2e57600080fd5b505afa158015610e42573d6000803e3d6000fd5b505050506040513d601f19601f82011682018060405250810190610e669190612576565b9050808387610e7591906128b3565b610e7f9190612882565b9450808287610e8e91906128b3565b610e989190612882565b9350505050915091565b600360009054906101000a900473ffffffffffffffffffffffffffffffffffffffff1681565b6000806000610ed5610b02565b9150915060008183610ee791906128b3565b90506000610f1b610f0c8786610efd919061282c565b8461230390919063ffffffff16565b8461231990919063ffffffff16565b905080945050505050919050565b610f3161232f565b73ffffffffffffffffffffffffffffffffffffffff16610f4f611408565b73ffffffffffffffffffffffffffffffffffffffff1614610fa5576040517f08c379a0000000000000000000000000000000000000000000000000000000008152600401610f9c906127b7565b60405180910390fd5b80600360006101000a81548173ffffffffffffffffffffffffffffffffffffffff021916908373ffffffffffffffffffffffffffffffffffffffff16021790555050565b6000806000610ff6610b02565b915091506000818361100891906128b3565b9050600061103c61102d878561101e919061282c565b8461230390919063ffffffff16565b8561231990919063ffffffff16565b905080945050505050919050565b61105261232f565b73ffffffffffffffffffffffffffffffffffffffff16611070611408565b73ffffffffffffffffffffffffffffffffffffffff16146110c6576040517f08c379a00000000000000000000000000000000000000000000000000000000081526004016110bd906127b7565b60405180910390fd5b6110d06000612337565b565b6110da61232f565b73ffffffffffffffffffffffffffffffffffffffff166110f8611408565b73ffffffffffffffffffffffffffffffffffffffff161461114e576040517f08c379a0000000000000000000000000000000000000000000000000000000008152600401611145906127b7565b60405180910390fd5b80600260006101000a81548173ffffffffffffffffffffffffffffffffffffffff021916908373ffffffffffffffffffffffffffffffffffffffff16021790555050565b80600160009054906101000a900473ffffffffffffffffffffffffffffffffffffffff1673ffffffffffffffffffffffffffffffffffffffff1663dd62ed3e33306040518363ffffffff1660e01b81526004016111f09291906126d8565b602060405180830381600087803b15801561120a57600080fd5b505af115801561121e573d6000803e3d6000fd5b505050506040513d601f19601f820116820180604052508101906112429190612576565b1161124c57600080fd5b600080611257610b02565b915091506000818361126991906128b3565b9050600061129d61128e868561127f919061282c565b8461230390919063ffffffff16565b8561231990919063ffffffff16565b9050600260009054906101000a900473ffffffffffffffffffffffffffffffffffffffff1673ffffffffffffffffffffffffffffffffffffffff166323b872dd3330886040518463ffffffff1660e01b81526004016112fe93929190612701565b602060405180830381600087803b15801561131857600080fd5b505af115801561132c573d6000803e3d6000fd5b505050506040513d601f19601f820116820180604052508101906113509190612524565b50600160009054906101000a900473ffffffffffffffffffffffffffffffffffffffff1673ffffffffffffffffffffffffffffffffffffffff1663a9059cbb33836040518363ffffffff1660e01b81526004016113ae929190612738565b602060405180830381600087803b1580156113c857600080fd5b505af11580156113dc573d6000803e3d6000fd5b505050506040513d601f19601f820116820180604052508101906114009190612524565b505050505050565b60008060009054906101000a900473ffffffffffffffffffffffffffffffffffffffff16905090565b600260009054906101000a900473ffffffffffffffffffffffffffffffffffffffff1681565b60066020528060005260406000206000915090505481565b600160009054906101000a900473ffffffffffffffffffffffffffffffffffffffff1681565b600460009054906101000a900473ffffffffffffffffffffffffffffffffffffffff1681565b6000611636600260009054906101000a900473ffffffffffffffffffffffffffffffffffffffff1673ffffffffffffffffffffffffffffffffffffffff166370a08231306040518263ffffffff1660e01b815260040161151b91906126bd565b60206040518083038186803b15801561153357600080fd5b505afa158015611547573d6000803e3d6000fd5b505050506040513d601f19601f8201168201806040525081019061156b9190612576565b611628600160009054906101000a900473ffffffffffffffffffffffffffffffffffffffff1673ffffffffffffffffffffffffffffffffffffffff166370a08231306040518263ffffffff1660e01b81526004016115c991906126bd565b60206040518083038186803b1580156115e157600080fd5b505afa1580156115f5573d6000803e3d6000fd5b505050506040513d601f19601f820116820180604052508101906116199190612576565b856123fb90919063ffffffff16565b61230390919063ffffffff16565b9050919050565b61164561232f565b73ffffffffffffffffffffffffffffffffffffffff16611663611408565b73ffffffffffffffffffffffffffffffffffffffff16146116b9576040517f08c379a00000000000000000000000000000000000000000000000000000000081526004016116b0906127b7565b60405180910390fd5b600073ffffffffffffffffffffffffffffffffffffffff168173ffffffffffffffffffffffffffffffffffffffff161415611729576040517f08c379a000000000000000000000000000000000000000000000000000000000815260040161172090612797565b60405180910390fd5b61173281612337565b50565b60056020528060005260406000206000915090505481565b81600260009054906101000a900473ffffffffffffffffffffffffffffffffffffffff1673ffffffffffffffffffffffffffffffffffffffff1663dd62ed3e33306040518363ffffffff1660e01b81526004016117ab9291906126d8565b602060405180830381600087803b1580156117c557600080fd5b505af11580156117d9573d6000803e3d6000fd5b505050506040513d601f19601f820116820180604052508101906117fd9190612576565b1161180757600080fd5b80600160009054906101000a900473ffffffffffffffffffffffffffffffffffffffff1673ffffffffffffffffffffffffffffffffffffffff1663dd62ed3e33306040518363ffffffff1660e01b81526004016118659291906126d8565b602060405180830381600087803b15801561187f57600080fd5b505af1158015611893573d6000803e3d6000fd5b505050506040513d601f19601f820116820180604052508101906118b79190612576565b116118c157600080fd5b600260009054906101000a900473ffffffffffffffffffffffffffffffffffffffff1673ffffffffffffffffffffffffffffffffffffffff166323b872dd3330856040518463ffffffff1660e01b815260040161192093929190612701565b602060405180830381600087803b15801561193a57600080fd5b505af115801561194e573d6000803e3d6000fd5b505050506040513d601f19601f820116820180604052508101906119729190612524565b50600160009054906101000a900473ffffffffffffffffffffffffffffffffffffffff1673ffffffffffffffffffffffffffffffffffffffff166323b872dd3330846040518463ffffffff1660e01b81526004016119d293929190612701565b602060405180830381600087803b1580156119ec57600080fd5b505af1158015611a00573d6000803e3d6000fd5b505050506040513d601f19601f82011682018060405250810190611a249190612524565b506000611a42611a3d83856123fb90919063ffffffff16565b612411565b9050600360009054906101000a900473ffffffffffffffffffffffffffffffffffffffff1673ffffffffffffffffffffffffffffffffffffffff1663833d690733836040518363ffffffff1660e01b8152600401611aa1929190612738565b600060405180830381600087803b158015611abb57600080fd5b505af1158015611acf573d6000803e3d6000fd5b50505050505050565b600080611ae4836114bb565b90506000600260009054906101000a900473ffffffffffffffffffffffffffffffffffffffff1673ffffffffffffffffffffffffffffffffffffffff166370a08231306040518263ffffffff1660e01b8152600401611b4391906126bd565b60206040518083038186803b158015611b5b57600080fd5b505afa158015611b6f573d6000803e3d6000fd5b505050506040513d601f19601f82011682018060405250810190611b939190612576565b90506000600160009054906101000a900473ffffffffffffffffffffffffffffffffffffffff1673ffffffffffffffffffffffffffffffffffffffff166370a08231306040518263ffffffff1660e01b8152600401611bf291906126bd565b60206040518083038186803b158015611c0a57600080fd5b505afa158015611c1e573d6000803e3d6000fd5b505050506040513d601f19601f82011682018060405250810190611c429190612576565b90506000600360009054906101000a900473ffffffffffffffffffffffffffffffffffffffff1673ffffffffffffffffffffffffffffffffffffffff166317879d426040518163ffffffff1660e01b815260040160206040518083038186803b158015611cae57600080fd5b505afa158015611cc2573d6000803e3d6000fd5b505050506040513d601f19601f82011682018060405250810190611ce69190612576565b90506000611d2e84611d01848a6123fb90919063ffffffff16565b611d0b9190612882565b84611d1f85896123fb90919063ffffffff16565b611d299190612882565b61248b565b90508095505050505050919050565b80600260009054906101000a900473ffffffffffffffffffffffffffffffffffffffff1673ffffffffffffffffffffffffffffffffffffffff1663dd62ed3e33306040518363ffffffff1660e01b8152600401611d9b9291906126d8565b602060405180830381600087803b158015611db557600080fd5b505af1158015611dc9573d6000803e3d6000fd5b505050506040513d601f19601f82011682018060405250810190611ded9190612576565b11611df757600080fd5b6000611e02826114bb565b905080600160009054906101000a900473ffffffffffffffffffffffffffffffffffffffff1673ffffffffffffffffffffffffffffffffffffffff1663dd62ed3e33306040518363ffffffff1660e01b8152600401611e629291906126d8565b602060405180830381600087803b158015611e7c57600080fd5b505af1158015611e90573d6000803e3d6000fd5b505050506040513d601f19601f82011682018060405250810190611eb49190612576565b11611ebe57600080fd5b6000600260009054906101000a900473ffffffffffffffffffffffffffffffffffffffff1673ffffffffffffffffffffffffffffffffffffffff166370a08231306040518263ffffffff1660e01b8152600401611f1b91906126bd565b60206040518083038186803b158015611f3357600080fd5b505afa158015611f47573d6000803e3d6000fd5b505050506040513d601f19601f82011682018060405250810190611f6b9190612576565b90506000600160009054906101000a900473ffffffffffffffffffffffffffffffffffffffff1673ffffffffffffffffffffffffffffffffffffffff166370a08231306040518263ffffffff1660e01b8152600401611fca91906126bd565b60206040518083038186803b158015611fe257600080fd5b505afa158015611ff6573d6000803e3d6000fd5b505050506040513d601f19601f8201168201806040525081019061201a9190612576565b90506000600360009054906101000a900473ffffffffffffffffffffffffffffffffffffffff1673ffffffffffffffffffffffffffffffffffffffff166317879d426040518163ffffffff1660e01b815260040160206040518083038186803b15801561208657600080fd5b505afa15801561209a573d6000803e3d6000fd5b505050506040513d601f19601f820116820180604052508101906120be9190612576565b90506000612106846120d984896123fb90919063ffffffff16565b6120e39190612882565b846120f785896123fb90919063ffffffff16565b6121019190612882565b61248b565b9050600260009054906101000a900473ffffffffffffffffffffffffffffffffffffffff1673ffffffffffffffffffffffffffffffffffffffff166323b872dd3330896040518463ffffffff1660e01b815260040161216793929190612701565b602060405180830381600087803b15801561218157600080fd5b505af1158015612195573d6000803e3d6000fd5b505050506040513d601f19601f820116820180604052508101906121b99190612524565b50600160009054906101000a900473ffffffffffffffffffffffffffffffffffffffff1673ffffffffffffffffffffffffffffffffffffffff166323b872dd3330886040518463ffffffff1660e01b815260040161221993929190612701565b602060405180830381600087803b15801561223357600080fd5b505af1158015612247573d6000803e3d6000fd5b505050506040513d601f19601f8201168201806040525081019061226b9190612524565b50600360009054906101000a900473ffffffffffffffffffffffffffffffffffffffff1673ffffffffffffffffffffffffffffffffffffffff1663833d690733836040518363ffffffff1660e01b81526004016122c9929190612738565b600060405180830381600087803b1580156122e357600080fd5b505af11580156122f7573d6000803e3d6000fd5b50505050505050505050565b600081836123119190612882565b905092915050565b60008183612327919061290d565b905092915050565b600033905090565b60008060009054906101000a900473ffffffffffffffffffffffffffffffffffffffff169050816000806101000a81548173ffffffffffffffffffffffffffffffffffffffff021916908373ffffffffffffffffffffffffffffffffffffffff1602179055508173ffffffffffffffffffffffffffffffffffffffff168173ffffffffffffffffffffffffffffffffffffffff167f8be0079c531659141344cd1fd0a4f28419497f9722a3daafe3b4186f6b6457e060405160405180910390a35050565b6000818361240991906128b3565b905092915050565b6000600382111561247857819050600060016002846124309190612882565b61243a919061282c565b90505b818110156124725780915060028182856124579190612882565b612461919061282c565b61246b9190612882565b905061243d565b50612486565b6000821461248557600190505b5b919050565b60008183101561249d578290506124a1565b8190505b92915050565b6000813590506124b681612a2f565b92915050565b6000815190506124cb81612a46565b92915050565b6000813590506124e081612a5d565b92915050565b6000815190506124f581612a5d565b92915050565b60006020828403121561250d57600080fd5b600061251b848285016124a7565b91505092915050565b60006020828403121561253657600080fd5b6000612544848285016124bc565b91505092915050565b60006020828403121561255f57600080fd5b600061256d848285016124d1565b91505092915050565b60006020828403121561258857600080fd5b6000612596848285016124e6565b91505092915050565b600080604083850312156125b257600080fd5b60006125c0858286016124d1565b92505060206125d1858286016124d1565b9150509250929050565b6125e481612941565b82525050565b6125f381612989565b82525050565b612602816129ad565b82525050565b600061261560268361281b565b91507f4f776e61626c653a206e6577206f776e657220697320746865207a65726f206160008301527f64647265737300000000000000000000000000000000000000000000000000006020830152604082019050919050565b600061267b60208361281b565b91507f4f776e61626c653a2063616c6c6572206973206e6f7420746865206f776e65726000830152602082019050919050565b6126b78161297f565b82525050565b60006020820190506126d260008301846125db565b92915050565b60006040820190506126ed60008301856125db565b6126fa60208301846125db565b9392505050565b600060608201905061271660008301866125db565b61272360208301856125db565b61273060408301846126ae565b949350505050565b600060408201905061274d60008301856125db565b61275a60208301846126ae565b9392505050565b600060208201905061277660008301846125ea565b92915050565b600060208201905061279160008301846125f9565b92915050565b600060208201905081810360008301526127b081612608565b9050919050565b600060208201905081810360008301526127d08161266e565b9050919050565b60006020820190506127ec60008301846126ae565b92915050565b600060408201905061280760008301856126ae565b61281460208301846126ae565b9392505050565b600082825260208201905092915050565b60006128378261297f565b91506128428361297f565b9250827fffffffffffffffffffffffffffffffffffffffffffffffffffffffffffffffff03821115612877576128766129d1565b5b828201905092915050565b600061288d8261297f565b91506128988361297f565b9250826128a8576128a7612a00565b5b828204905092915050565b60006128be8261297f565b91506128c98361297f565b9250817fffffffffffffffffffffffffffffffffffffffffffffffffffffffffffffffff0483118215151615612902576129016129d1565b5b828202905092915050565b60006129188261297f565b91506129238361297f565b925082821015612936576129356129d1565b5b828203905092915050565b600061294c8261295f565b9050919050565b60008115159050919050565b600073ffffffffffffffffffffffffffffffffffffffff82169050919050565b6000819050919050565b60006129948261299b565b9050919050565b60006129a68261295f565b9050919050565b60006129b8826129bf565b9050919050565b60006129ca8261295f565b9050919050565b7f4e487b7100000000000000000000000000000000000000000000000000000000600052601160045260246000fd5b7f4e487b7100000000000000000000000000000000000000000000000000000000600052601260045260246000fd5b612a3881612941565b8114612a4357600080fd5b50565b612a4f81612953565b8114612a5a57600080fd5b50565b612a668161297f565b8114612a7157600080fd5b5056fea2646970667358221220d9c897af253f0ddfdc86f222fad8fa9fa6e33cf21c6f72d401d5963db97aad6764736f6c63430008000033",
  "linkReferences": {},
  "deployedLinkReferences": {}
}